:1000000000000420752101005D2101005F21010035
:100010006121010063210100652101000000000051
:100020000000000000000000000000007522010038
:10003000692101000000000095220100759A01006D
:10004000654F01006F210100ED8701009D50010007
:10005000BD6101006F210100E94901006F2101002C
:10006000B55D01006F2101006F2101001D4D0100F0
:100070006F2101006F2101006F2101006F2101003C
:10008000C9620100DD2401006F2101006F21010020
:100090006F2101006F2101006F2101006F2101001C
:1000A0006F2101006F2101006F2101006F2101000C
:1000B0006F2101006F21010000000000000000001E
:1000C0006F2101006F2101006F210100B15001007B
:1000D0006F2101006F2101006F21010029750100CE
:1000E0006F2101006F2101006F210100000000005D
:1000F000000000006F21010000000000C550010059
:1001000000000000000000000000000000000000EF
:1001100000000000000000000000000000000000DF
:1001200000000000000000000000000000000000CF
:1001300000000000000000000000000000000000BF
:1001400000000000000000000000000000000000AF
:10015000000000000000000000000000000000009F
:10016000000000000000000000000000000000008F
:10017000000000000000000000000000000000007F
:10018000000000000000000000000000000000006F
:10019000000000000000000000000000000000005F
:1001A000000000000000000000000000000000004F
:1001B000000000000000000000000000000000003F
:1001C000000000000000000000000000000000002F
:1001D000000000000000000000000000000000001F
:1001E000000000000000000000000000000000000F
:1001F00000000000000000000000000000000000FF
:020000021000EC
:10200000354936480A1A02D0072291438D46344991
:1020100034480A1A06D00722914381F30988022224
:1020200082F3148830483149314A00F044F831488D
:102030003149324A00F03FF831483249324A00F023
:102040003AF832483249334A00F035F832483349D9
:10205000334A00F030F833483349344A00F02BF863
:1020600033483449344A00F026F8344834490022D1
:1020700000F02CF833483449002200F027F83348A8
:102080003349091A082902DB002202604160314A03
:1020900090471F481F49884205D00268043003B4A6
:1020A000904703BCF7E700208646EC46002000215D
:1020B000294A9047FEE7884207D0521A05D0037894
:1020C00001300B700131013AF9D17047884202D0DA
:1020D00002700130FAE770470000042000E003209E
:1020E0000000042000000420809E02000000002068
:1020F000B0000020D0210100D0210100288802007A
:10210000809E020000000020000000207C88020069
:102110007C8802007C8802007C8802007C880200A7
:102120007C8802007C8802007C8802007E9E02007F
:10213000309F0200B0000020B0000020B00000205E
:102140004CEB00204CEB00204CEB00204CEB002033
:102150004C0B01209D2101002D920100FEE7FEE7BE
:10216000FEE7FEE7FEE7FEE7FEE7FEE7FEE7FEE747
:1021700000F002B8FFF7FCBF0F484FF0070188439B
:1021800085460E4880470E48016841F470010160A1
:10219000BFF34F8FBFF36F8FFFF732BF09480A4974
:1021A0000A4A884207D0521A05D0037801300B70D2
:1021B0000131013AF9D170470000042099880100EB
:1021C00088ED00E0288802000000002000000020C8
:1021D00000F1080343604FF0FF328260C360036187
:1021E00000230360704700230361704743684B601E
:1021F0009A688A60516099600861036801330360DE
:10220000704730B40D68B5F1FF3F11D000F10803FD
:102210001C465B681A68AA42FAD963684B609960E9
:102220008C606160086103680133036030BC7047F3
:102230000469F2E70369416882688A604168516015
:102240005A68824204BF82685A60002202611A689A
:10225000013A1A60186870470548006880F30888DA
:1022600062B661B6BFF34F8FBFF36F8F00DF00BF61
:1022700000000000064B19680868B0E8F04F80F3D2
:102280000988BFF36F8F4FF0000080F3118870470B
:10229000FC000020EFF30980BFF36F8F144B1A6826
:1022A0001EF0100F08BF20ED108A20E9F04F1060DB
:1022B0004DF8043D4FF0A00080F31188BFF34F8F1D
:1022C000BFF36F8F01F052F84FF0000080F31188D8
:1022D00008BC19680868B0E8F04F1EF0100F08BF7E
:1022E000B0EC108A80F30988BFF36F8F704700BF8E
:1022F000FC00002008B5074B1B68B3F1FF3F03D17A
:10230000A02383F31188FEE703499E2001F09CFD82
:10231000F6E700BFB80000207C8802004FF0807311
:1023200040F8043C40F8081C054B40F80C3C40F8D1
:10233000202C6FF0020340F8243C4438704700BF63
:10234000F522010010B582B02B4B1A682B4B9A4234
:102350004CD12B4B1A78D2B20192FF221A701B7803
:10236000DBB28DF803309DF8033003F00503254AF6
:102370001370254B07221A609DF8033013F0800F6D
:102380000FD006229DF803305B00DBB28DF80330DE
:102390009DF803301146013A13F0800FF2D11A4B29
:1023A0001960194A136803F007031360019BDBB23D
:1023B000134A1370104CE02384F8223000F0C8F860
:1023C000124B00221A60D4F8883043F47003C4F82A
:1023D00088300F4A536B43F040435363236943F003
:1023E00010032361FFF738FFFFF784FF0949B0208E
:1023F00001F02AFDADE700BF00ED00E041C20F4152
:1024000000E400E0B0000020B4000020B80000208C
:1024100000EF00E07C88020008B5A02383F3118858
:10242000094A136801331360012B00D008BD074B24
:102430005B68C3F30803002BF8D0054940F2111084
:1024400001F002FDF2E700BFB800002000ED00E05F
:102450007C88020008B5084B1B683BB1064A13682C
:10246000013B13600BB983F3118808BD03494FF496
:102470008C7001F0E9FCF1E7B80000207C880200D4
:1024800008B5EFF30583C3F308030F2B09D903F154
:10249000E023F03393F80033DBB20C4A12789A420F
:1024A00008D80B4BDB68C3F302230A4A12689A422E
:1024B00006D308BD08494FF4A97001F0C5FCF0E748
:1024C00005494FF4B17001F0BFFCF2E7B000002005
:1024D00000ED00E0B40000207C88020070B582B0FE
:1024E000EFF31186A02383F31188174BD3F804551B
:1024F0000022C3F80021D3F800310193019B00F0C2
:1025000081FD2D1A25F07F4535F0010313D16C1E96
:102510006DB1002500F096FD05432346013C002BDC
:10252000F8D125B1094B4FF080525A6040BF86F375
:10253000118802B070BD01F0B7F80228E7D000F0B2
:1025400081FD0546EDE700BF0010014000ED00E011
:1025500008B5002001F094FE094B2022C3F808259D
:102560000122C3F804239A601A600222C3F84423AC
:10257000044BE02283F811234FF400321A6008BDA7
:102580000010014000E100E010B50446FFF744FFF1
:10259000A46BFFF75FFFB4FA84F0400910BD70B57B
:1025A00004461546866B026C5AB903681BB10020BD
:1025B0000136A66370BD406801F086F800236360B1
:1025C000F6E76DB9806808F0E3F8A368226C13445D
:1025D000A3606268934219D32368A3602846E7E7A3
:1025E000C06808F0D5F8226C5142E3689B1AE3609A
:1025F0002268934202D263680B44E360022D01D04B
:102600000020D5E726B1013E0020D1E72846CFE7DC
:102610000020CDE70346026C6AB110B50846D968C0
:102620001144D9605C68A14224BF1968D960D96897
:1026300008F0AEF810BD704770B50546FFF7ECFE28
:1026400095F8454064B2002C0FDD05F1240602E048
:10265000013C64B24CB16B6A3BB1304600F072FF92
:102660000028F5D000F0FEFFF2E7FF2385F84530A3
:10267000FFF7F0FEFFF7D0FE95F8444064B2002C5F
:102680000FDD05F1100602E0013C64B24CB12B698C
:102690003BB1304600F056FF0028F5D000F0E2FFD5
:1026A000F2E7FF2385F84430FFF7D4FE70BD000049
:1026B00038B50D460446D0B1FFF7AEFE2268216C56
:1026C000E36B01FB03F3D01860600020A063A260FD
:1026D0005B1A1344E360FF2384F8443084F84530E8
:1026E000D5B9236943B9FFF7B5FE012038BD0F49BD
:1026F000FC2001F0A9FBDFE704F1100000F022FF4D
:102700000028F0D00A4B4FF080525A6040BFBFF310
:102710004F8FBFF36F8FE6E704F11000FFF758FD0E
:1027200004F12400FFF754FDDDE700BF2489020017
:1027300000ED00E070B50C46064650B104FB06F013
:10274000483001F013FA054688B144B100F148035E
:1027500006E0084940F26D1001F076FBEEE7034613
:102760002B60EE632C6401212846FFF7A1FF284669
:1027700070BD00BF248902002DE9F04784B089466E
:1027800001921D46044670B1B9F1000F11D0022D1F
:1027900018D000F089FF08B9019BE3B900273E4635
:1027A000DFF84C8152E051494FF4377001F04CFB97
:1027B000EAE7236C002BEAD04C4940F2DD2001F01F
:1027C00043FBE4E7E36B012BE3D0484940F2DE2012
:1027D00001F03AFBDDE7454940F2E12001F034FB2E
:1027E000DCE72A4649462046FFF7D9FE636A7BB9F3
:1027F00040B13F4B4FF080525A6040BFBFF34F8F04
:10280000BFF36F8FFFF726FE012004B0BDE8F0870D
:1028100004F1240000F096FE0028F3D0344B4FF072
:1028200080525A6040BFBFF34F8FBFF36F8FE9E70D
:10283000FFF710FE0020E8E702A800F0C9FE12E052
:102840002046FFF7F9FE00F08BFC0127FFF7E4FDBF
:10285000A26BE36B9A42C4D3022DC2D0019B002B22
:10286000E6D0002FE8D0FFF7F5FD00F0C3FBFFF73F
:10287000D3FD94F8440040B2B0F1FF3F08BF84F8A4
:10288000446094F8450040B2B0F1FF3F08BF84F8BF
:102890004560FFF7DFFD01A902A800F0A5FEF0B931
:1028A000FFF7BAFDD4F838A0E76BFFF7D3FDBA45C0
:1028B000C6D1019904F1100000F00CFE2046FFF78C
:1028C000BBFE00F04DFC0028BFD14FF08053C8F88C
:1028D000043040BFBFF34F8FBFF36F8FB5E7204683
:1028E000FFF7AAFE00F03CFC00208EE724890200DE
:1028F00000ED00E02DE9F8430E4691461D460446E2
:10290000A0B1CEB1022D20D0FFF7BAFDEFF31188B0
:10291000A02383F31188A26BE36B9A421ED3022D8E
:102920001CD0002088F31188BDE8F8831E4940F2CE
:10293000A23001F089FAE4E7236C002BE2D01A49B7
:1029400040F2A33001F080FADCE7E36B012BDBD02F
:1029500015494FF4697001F077FAD5E794F845709E
:102960007FB22A4631462046FFF719FEB7F1FF3FF6
:1029700005D001377FB284F845700120D2E7636A41
:102980000BB90120CEE704F1240000F0DBFD30B1EB
:10299000B9F1000F05D00120C9F80000C2E70120FD
:1029A000C0E70120BEE700BF248902002DE9F04303
:1029B00085B088460192044660B1B8F1000F0FD08F
:1029C00000F072FE08B9019B9BB900273D46DFF875
:1029D0002C914BE0484940F2DF4001F035FAECE73A
:1029E000236C002BECD0444940F2E34001F02CFA78
:1029F000E6E741494FF49D6001F026FAE5E74146DC
:102A00002046FFF707FE731EA36323692BB9FFF768
:102A100021FD012005B0BDE8F08304F1100000F0B5
:102A200091FD0028F3D0354B4FF080525A6040BFE3
:102A3000BFF34F8FBFF36F8FE9E7FFF70BFD002068
:102A4000E8E702A800F0C4FD1AE02046FFF7F4FD15
:102A500000F086FB09E02046FFF7EEFD00F080FB6A
:102A60002046FFF791FD002843D10127FFF7D4FC52
:102A7000A66B002EC3D1019B002BDED0002FE0D02F
:102A8000FFF7E8FC00F0B6FAFFF7C6FC94F8443014
:102A90005BB2B3F1FF3F08BF84F8445094F845306F
:102AA0005BB2B3F1FF3F08BF84F84550FFF7D2FC9B
:102AB00001A902A800F098FD0028CCD12046FFF71C
:102AC00063FD0028C1D0019904F1240000F002FD4B
:102AD0002046FFF7B1FD00F043FB0028C5D14FF0C1
:102AE0008053C9F8043040BFBFF34F8FBFF36F8FDF
:102AF000BBE700208EE700BF2489020000ED00E064
:102B000010B40023084C54F833202AB10133082BA9
:102B1000F9D15DF8044B7047034A42F8331002EBD9
:102B2000C3035860F5E700BFBC00002070B5044641
:102B30000D461646FFF770FC94F844305BB2B3F1D3
:102B4000FF3F04BF002384F8443094F845305BB263
:102B5000B3F1FF3F04BF002384F84530FFF77AFC50
:102B6000A36B1BB12046FFF767FD70BD32462946B7
:102B700004F1240000F0C8FCF4E70000094B1A68D7
:102B8000094B1B68D86A50B9084B1B68012B07D842
:102B900032B9074B1868074B1B68C01A70470020F2
:102BA000704700BFA8010020FC00002008010020A1
:102BB000D801002020020020084B1B681B6823B9A5
:102BC000074B4FF0FF321A607047044B1B68DB68FD
:102BD000DB685A68024B1A60704700BF0001002092
:102BE000D801002010B5044628B162690A4B9A4208
:102BF00007D0002010BD094940F2CC6001F024F953
:102C0000F3E7A06A064B984203D0B0FA80F040097F
:102C1000F0E70020EEE700BFF8010020BC890200C9
:102C2000E001002070B504460D46174B1E68174B97
:102C300018680430FFF7FEFAB4F1FF3F0DD03444BA
:102C4000124B1B685C60A64210D9114B18680F4BE1
:102C500019680431FFF7D5FA70BD002DEFD00B4B8A
:102C6000196804310B48FFF7C1FAF5E70A4B1868F9
:102C7000064B19680431FFF7C4FA084B1B68A342DE
:102C800084BF064B1C60E7E720020020FC00002008
:102C900004010020F801002000010020D8010020DC
:102CA0002DE9F84F07460D4698469600304600F04D
:102CB0005DFF002800F0B0808146502000F056FFF4
:102CC000044600287ED0C0F830903246A521484600
:102CD00007F087FDD4F8309005F1FF3C04F1330E86
:102CE00005F10B011CF8015F0EF8015F0DB18C4579
:102CF000F8D14FF0000B84F83FB00A9D062D28BF95
:102D00000625E5622564C4F844B004F1040A50467F
:102D1000FFF769FA04F11800FFF765FA2461C5F1BD
:102D20000705A5616462C4F848B084F84CB0043E5D
:102D30004E444246394626F00700FFF7EFFA20607E
:102D40000B9B03B11C60FFF767FB374A1368013325
:102D50001360364B1B68002B3AD0354B1B683BB9D0
:102D6000324B1B68DA6AE36A9A429CBF2F4B1C60A5
:102D7000304A136801331360E06A2F4B1B68984296
:102D800084BF2D4B186000EB800051462B4B03EBAA
:102D90008000FFF72BFAFFF75DFB254B1B68002B2C
:102DA0003ED0224B1B68DA6AE36A9A423AD2244B3D
:102DB0004FF080525A6040BFBFF34F8FBFF36F8F09
:102DC00001202BE0484600F069FF4FF0FF3025E07E
:102DD000164B1C601368012BCAD1184D05F18C06E7
:102DE0002846FFF7F5F91435B542F9D1154E3046AE
:102DF000FFF7EEF9144D2846FFF7EAF91348FFF7FD
:102E0000E7F91348FFF7E4F91248FFF7E1F9124B2D
:102E10001E60124B1D60ABE74FF0FF30BDE8F88F2E
:102E20000120FBE70120F9E794010020FC000020CD
:102E3000F4010020A4010020A801002008010020C6
:102E400000ED00E0AC010020C0010020E001002006
:102E50000C020020F80100200001002004010020E5
:102E600038B568B104461B4B1B68834207D0FFF797
:102E7000D3FA2046FFF7B6FE40B9FFF7EBFA38BDAC
:102E8000154940F2F66000F0DFFFF8E7251D2846FF
:102E9000FFF7D0F9E06A114B1B68984284BF0F4BD3
:102EA000186000EB800029460D4B03EB8000FFF714
:102EB0009DF9084B1B68E26ADB6A9A42DDD3094B35
:102EC0004FF080525A6040BFBFF34F8FBFF36F8FF8
:102ED000D3E700BFFC000020BC890200A80100204D
:102EE0000801002000ED00E0F8B5054668B3FFF7E3
:102EF000C7FAEFF31186A02383F311882846FFF762
:102F000071FE0446E8B1174B1B6823BB164B1B68C8
:102F1000EC6ADB6A9C4234BF002401242F1D384632
:102F2000FFF788F9E86A114B1B68984284BF0F4B82
:102F3000186000EB800039460D4B03EB8000FFF773
:102F400055F986F311882046F8BD0A4940F22D70E4
:102F500000F07AFFCBE705F118010748FFF746F9C3
:102F60000024EEE7A0010020FC000020A8010020C2
:102F700008010020BC890200E001002000B583B0F8
:102F8000154B019300230093802214491448FFF746
:102F900087FE012805D0B0F1FF3F16D003B05DF8E1
:102FA00004FB00F027FC0128F5D1A02383F311884E
:102FB0000C4B4FF0FF321A600B4B01221A600B4B87
:102FC00000221A60FFF7BEF9E8E7094940F2DC7019
:102FD00000F03AFFE2E700BFD4010020548A02006B
:102FE000B1320100D8010020F401002020020020AD
:102FF000BC890200024A136801331360704700BFA6
:10300000A0010020014B1868704700BF200200207B
:1030100010B50446084B1B68084A126803449342E3
:1030200004D8054B186804441C6010BD044940F6E0
:10303000C91000F009FFF4E720020020D8010020A9
:10304000BC8902002DE9F047394B1B68002B60D189
:10305000384B1F6801371F607FB9374B1B681B68EF
:10306000DBB9354A1168354B186810601960344A6D
:10307000136801331360FFF79FFD324B1B68BB429F
:1030800054D82D4B1B681B686BB10026DFF8A88055
:10309000DFF8C490DFF8C4A028E02B4940F63320C5
:1030A00000F0D2FEDDE70026264B4FF0FF321A601B
:1030B00034E0244A136031E0E06AD9F800309842E5
:1030C00088BFC9F8000000EB800029460AEB8000A9
:1030D000FFF78CF81D4B1B68E26ADB6A9A4228BF37
:1030E0000126D8F800301B68002BDDD0D8F800305E
:1030F000DB68DC6863689F42DBD3251D2846FFF749
:1031000099F8A36A002BD7D004F11800FFF792F8C2
:10311000D2E70F4A13680133136000260D4B1B687A
:10312000002B0CBF30460120BDE8F0870026F5E7F4
:10313000A001002020020020000100200401002046
:10314000DC010020D8010020BC890200FC00002026
:103150009C01002024020020A8010020080100207A
:103160002DE9F041354B1B68ABB1FFF755F9334BF7
:103170001A68013A1A601B68002B4ED1304B1B684D
:10318000002B50D02F4B1B68002B50D02D4E2E4FB4
:10319000DFF8CC8008E02D494FF4046000F054FEC5
:1031A000E3E73368002B40D0F368DC6804F11800D3
:1031B000FFF740F8251D2846FFF73CF8E06A3B681A
:1031C000984288BF386000EB8000294608EB8000F9
:1031D000FFF70CF81E4B1B68E26ADB6A9A42E0D3E9
:1031E0001C4B01221A60DCE7013C05D0FFF72AFFE7
:1031F0000028F9D03560F7E7174B00221A60154B0D
:103200001C685CB1154B4FF080525A6040BFBFF351
:103210004F8FBFF36F8F012400E00024FFF71AF9EE
:103220002046BDE8F0810024F8E7FFF7C5FC0A4B13
:103230001C68002CE3D0074E0125D7E7A001002031
:1032400094010020E0010020A8010020BC890200B8
:10325000FC000020240200209C01002000ED00E082
:103260000801002010B560B104460E4B1B6893B9ED
:10327000FFF7C0FE00212046FFF7D4FCFFF770FFE8
:1032800040B9094B4FF080525A6040BFBFF34F8F97
:10329000BFF36F8F10BD054940F20F5000F0D4FD11
:1032A000E6E700BFA001002000ED00E0BC890200BD
:1032B0002DE9F041254D264F264EDFF8AC800EE07B
:1032C000254B4FF080525A6040BFBFF34F8FBFF382
:1032D0006F8F05F041FCFFF751FC01281ED82B68C9
:1032E000BBB1FFF799F8FB68DC68201DFEF7A2FF71
:1032F0003368013B33602B68013B2B60FFF7AAF872
:10330000206B00F0CBFC204600F0C8FC2B68002BA3
:10331000E7D1D8F80030012BD2D8DAE7FFF76AFE00
:103320000E4B1A680E4B1B689A4208D3FFF726FC17
:10333000012801D906F098FCFFF712FFCFE70949F1
:1033400040F6EE4000F080FDF0E700BF980100205D
:103350000C0200209401002000ED00E0D8010020C4
:1033600020020020BC89020008010020F8B5234B90
:103370001B681BB1224B01221A60F8BD204B0022B2
:103380001A60204B1C6804EB84039B001E4AD35830
:103390008BB91E4F4FF43566154605E0013C04EB32
:1033A000840355F8233033B9002CF7D13946304621
:1033B00000F04AFDF2E7144B04EB840203EB8202B7
:1033C00051684968516004EB840203EB82030833BF
:1033D00099420BD004EB84020B4B03EB82035B6836
:1033E000DA680B4B1A60074B1C60C6E74968134646
:1033F000054A02EB83035960ECE700BFA0010020FF
:1034000024020020A801002008010020BC8902003D
:10341000FC00002038B50446FEF7FEFFFCB1251D78
:103420002846FEF707FFA36A1BB104F11800FEF758
:1034300001FF29462048FEF7D9FE94F84C30DBB254
:10344000012B04BF002384F84C30FFF703F81B4B1B
:103450001B683BB91A4B1B68A3420AD038BD184BF6
:103460001C68DCE7FEF7D8FFFFF7A6FBFEF7F2FFCC
:10347000F0E7124B1B6893B1124B1B684BB9124B10
:103480004FF080525A6040BFBFF34F8FBFF36F8F32
:10349000E4E70E4940F2A26000F0D6FCEFE7064BED
:1034A0001A680B4B1B689A4203D1054B00221A6025
:1034B000D4E7FFF75BFFD1E7F8010020F40100201B
:1034C000FC000020A001002000ED00E0BC8902000B
:1034D0009401002038B50C46054650B1084B1968D8
:1034E00018312846FEF78DFE01212046FFF79AFB92
:1034F00038BD04494FF4366000F0A6FCEEE700BF8B
:10350000FC000020BC89020070B50D46144606463A
:1035100070B10A4B196818313046FEF767FE002C6F
:1035200021460CBF28464FF0FF30FFF77BFB70BDF4
:10353000034940F68B3000F087FCEAE7FC000020EE
:10354000BC89020038B5C368DC6844B304F11805CF
:103550002846FEF76FFE174B1B6833BB251D284618
:10356000FEF768FEE06A144B1B68984284BF124B5A
:10357000186000EB80002946104B03EB8000FEF73B
:1035800035FE0F4B1B68E26ADB6A9A4283BF012457
:103590000C4B1C600024FFF70FFB204638BD0A4986
:1035A00040F6BB3000F050FCD0E729460748FEF754
:1035B0001DFEE6E7A0010020A80100200801002070
:1035C000FC00002024020020BC890200E001002051
:1035D000034B1B680360034B1B684360704700BFCD
:1035E000DC0100202002002070B50C460546B8B171
:1035F000E4B1FEF711FF184B1A682368B3F1FF3FDF
:1036000022D06968154800682E68864201D0914230
:103610001FD9501A83420FD800232360012414E0DD
:103620000F4940F6264000F00FFCE1E70C4940F658
:10363000274000F009FCDCE79B1A0B442360284676
:10364000FFF7C6FF002400E00024FEF703FF20463A
:1036500070BD0124F9E700BF20020020DC0100203A
:10366000BC890200014B01221A607047240200202D
:10367000094B1B6863B9094B1B685BB9084B186899
:10368000084B1B68013B984214BF01200220704781
:103690000020704700207047E00100202402002035
:1036A000F801002094010020054B1B6833B1054B45
:1036B0001B68002B0CBF02200020704701207047C0
:1036C000F4010020A0010020002835D038B50446C0
:1036D0001B4B1B68834204D01A4940F63B7000F034
:1036E000B3FB636C4BB1636C013B6364E16A226CB6
:1036F000914223D03BB1002038BD124940F63C70C6
:1037000000F0A2FBEFE7251D2846FEF793FD206C95
:10371000E062C0F10703A3610B4B1B68984284BFB2
:10372000094B186000EB80002946084B03EB800032
:10373000FEF75CFD0120DFE7002070470020DBE79B
:10374000FC000020BC890200A80100200801002024
:1037500008B54160006191420CD8D21A83699A423F
:1037600001D3012008BD011D094B1868FEF749FD72
:103770000020F7E79A4201D2994206D2011D054B7B
:103780001868FEF73EFD0020ECE70120EAE700BFE5
:103790002C0200202802002038B5FEF73DFE0F4B1A
:1037A0001B6813B1FEF756FE38BD0D4D2846FEF7D7
:1037B0000FFD0C4C2046FEF70BFD0B4B1D600B4B19
:1037C0001C60002210210320FEF7B4FF034B186099
:1037D0000028E7D00649FFF793F9E3E75C020020F1
:1037E0003002002044020020280200202C02002089
:1037F0005C8A020000B583B0FFF7CEFF0B4B1B685D
:103800005BB10B4B01930223009300234FF4007232
:1038100008490948FFF744FA28B908494FF4887065
:1038200000F012FB002003B05DF804FB5C020020F6
:1038300060020020648A02004D3901006C8A020097
:10384000F0B585B00C4615461E460746B0B1124B82
:103850001868F8B1009401950297052C14DCFFF765
:1038600023FF02284FF000030CBF0A9A1A4669464C
:1038700009480068FEF780FF05B0F0BD074940F237
:10388000831000F0E1FAE2E7002332466946FFF7D1
:1038900031F8F1E70020EFE75C0200206C8A0200BB
:1038A0002DE9F04F83B08246FFF7ACFB0646234B71
:1038B0001B68834208D80023CAF800301F4B1E60E3
:1038C000304603B0BDE8F08F1D4D4FF00008DFF823
:1038D00078902B681A6842B3DB681F68DC6804F1D3
:1038E000040B5846FEF7A6FC636A20469847E36936
:1038F000012BEED1A3693B449F4206D26360246151
:1039000059462868FEF77DFCE3E7CDF80080434682
:103910003A4641462046FFF793FF0028D9D1494651
:1039200040F26F3000F090FAD3E7064A106804497D
:10393000086013600123CAF80030BFE75802002076
:10394000280200202C0200206C8A02002DE9F0439E
:1039500089B0694E694DDFF8B08133681F6877B16F
:10396000DB681F68FFF746FB04A8FFF799FF0446D2
:10397000049B002B50D1874222D900220EE0FFF792
:1039800039FB04A8FFF78CFF0446049B002B43D1AE
:103990005B4B1B681A68B2FA82F25209391B28681D
:1039A000FFF7C4F8FFF7DCFB002837D1554B4FF089
:1039B00080525A6040BFBFF34F8FBFF36F8F2DE02F
:1039C000FFF7CEFB3368DB68D3F80C9009F10400F5
:1039D000FEF730FCD9F81C30012B04D0D9F8243084
:1039E000484698471AE0D9F818103B462246394411
:1039F0004846FFF7ADFE0028F0D0002100910B46AD
:103A00003A464846FFF71CFF0028E7D1414640F2FE
:103A1000E51000F019FAE1E7FFF7A2FB002406E049
:103A200007990698059B9847049B002B09DA2246C4
:103A300004A92868FEF7BAFF00288ED0049B002B4B
:103A4000EEDB069F7B6913B1381DFEF7F3FB03A87D
:103A5000FFF726FF8146049B092BE8D801A252F804
:103A600023F000BF8D3A01008D3A01008D3A01002C
:103A70002F3A0100CD3A0100EF3A01008D3A0100E2
:103A80008D3A01002F3A0100CD3A0100059BB9693A
:103A9000024619443846FFF75BFE0028BED07B6A19
:103AA00038469847FB69012BB8D1BA6900210091CB
:103AB0000B46059802443846FFF7C2FE0028ADD1F8
:103AC000414640F2FE2000F0BFF9A7E7059BBB612D
:103AD0003BB1B9694B464A4649443846FFF738FE80
:103AE0009CE7414640F2153000F0AEF9F1E7384668
:103AF00000F0D4F892E700BF280200205C0200200A
:103B00002C02002000ED00E06C8A0200154B1A46E2
:103B10001B688342FBD3516802EB010C604509D05E
:103B2000416800EB010C634509D00360904218BF67
:103B3000106070474068014451601046F0E710B4CF
:103B4000094C2468A3420BD05B6819444160136898
:103B50001B680360904218BF10605DF8044B70470B
:103B60000460F7E774CA002064020020F8B5044638
:103B7000FFF740FA424B1B68B3B1424B1B681C4233
:103B800078D1002C76D004F1080514F0070F1CBF83
:103B900025F007050835002D6CD03B4B1B68AB4268
:103BA00068D33A4A146827E0394A12F0070F1ED04A
:103BB000D11D21F0070102F548435B1A0A4633483C
:103BC0000260002141601344083B23F007032C48A6
:103BD000036059601960991A516013602D4B196088
:103BE000294B1960274B4FF000421A60C5E74FF48C
:103BF0004843E4E722461C466368AB4202D223688E
:103C0000002BF7D11E4B1B68A34233D01668083631
:103C10002368136063685B1B102B0AD9671917F0C0
:103C2000070F22D163685B1B7B6065603846FFF736
:103C30006DFF626814490B689B1A0B60154909688F
:103C40008B423CBF13490B600E4B1B6813436360F0
:103C500000232360FFF784FA16F0070F0DD00E49FA
:103C600040F2031000F0F0F807E00B49C32000F029
:103C7000EBF8D7E7FFF774FA00263046F8BD00BF2F
:103C80006402002068CA00206CCA002074CA0020A8
:103C90006802002070CA0020048B0200002840D077
:103CA00010B5044650F8042C1E4B1B681A4211D064
:103CB00050F8083CF3B11C494FF48C7000F0C4F884
:103CC00054F8043C174A1268134202D054F8081CF6
:103CD000A1B110BD144940F2171000F0B5F854F826
:103CE000083C002BE7D154F8043C0E4A12681342FA
:103CF000EFD003E054F8043C0A4A126823EA0203B6
:103D000044F8043CFFF776F9084A54F8043C11687B
:103D10000B441360A4F10800FFF7F8FEFFF720FA48
:103D2000D7E7704768CA0020048B02006CCA0020E5
:103D300082B001238DF807309DF80730134B1860CF
:103D400059609A6044F20103984213D044F202038E
:103D5000984207D10D4BDA60DA6812689A61DA6826
:103D60005268DA6172B69DF80730002BFBD162B65B
:103D700002B07047054B1A611A6992685A611A6954
:103D800012689A611A695268DA61EBE77CCA00200E
:103D900000B583B002900091019244F20100714697
:103DA0006A4600F003F803B000BD000008B572B623
:103DB000044BD3F8F03013F0010F00D000BEFFF732
:103DC000B7FF08BD00ED00E072B6024A1368013388
:103DD000136070479CCA0020034A1368013B1360BC
:103DE00003B962B6704700BF9CCA0020EFF3058399
:103DF000C3F3080333B9EFF3148080F0010000F03F
:103E0000010070470120704708B5FFF7EFFF012858
:103E100002D1FFF7D9FF08BD0249432000F014F892
:103E2000F7E700BFAC8B020008B5FFF7DFFF012802
:103E300002D1FFF7D1FF08BD0249512000F004F87C
:103E4000F7E700BFAC8B020000B583B00090019192
:103E50006A46002144F20200FFF7A8FF03B05DF8B4
:103E600004FB000000B583B00378012B06D0022BC1
:103E70004ED0002B66D003B05DF804FB037A83B903
:103E80003F4B1B783F4AD35C2BB101223E493F4850
:103E900004F0CAFBEFE701223B493D4803F0ACFFC9
:103EA000E9E7436819783B4800F07FF990B10122B7
:103EB0008DF800200190384B1B6868469847354ABA
:103EC0009168D36892885B1A9A4210D2334B0122D0
:103ED0001A70D0E72F4B9A68DB689A42EFD0002324
:103EE0008DF800302C4B1B6868469847E7E7244B59
:103EF0001B78244AD35C2BB101222349234804F0C8
:103F000093FBB8E701222049214803F075FFB2E78F
:103F100002238DF80030C3680193194B1B78194AAE
:103F2000D35C4BB101221849184804F07DFB1A4BB1
:103F30001B68684698479EE701221349144803F01E
:103F40005BFFF4E71649174800F043F938B1032343
:103F50008DF80030104B1B68684698478BE7084B7C
:103F60001B78084AD35C2BB101220D49074804F0A5
:103F7000D9FA80E701220A49054803F0C3FE7AE72F
:103F80000000002084CD0020C8CA002004000020CA
:103F90000C000020A4CA0020A0CA0020B4CA00203F
:103FA000CCCA0020B8CA0020F0B589B01E462E4BFE
:103FB0001A60002956D004460D468A8809682B48A5
:103FC00000F0E0F8034610B1184609B0F0BDAA8928
:103FD000A968274800F0D6F803460028F4D16D46BA
:103FE000244F0FCF0FC597E80F0085E80F006369D6
:103FF0000693237C003B18BF01238DF814308DF805
:104000001C60637C002B14BF0E2300238DF8153039
:10401000E3680293A36803932368019363680093A2
:10402000154A6946154803F00BFB03460028CBD11F
:10403000134A002111702268B2F1FF3FC4D00F4B28
:104040001B78104AD35C33B101220F490F4804F0AA
:10405000EBFA0346B8E701220B490D4803F0CCFE0A
:104060000346B1E70723AFE7A0CA0020A4CA002097
:10407000B8CA0020F08C0200653E0100000000205C
:10408000B4CA002084CD0020C8CA0020040000204B
:104090000C00002038B5044648B1144B1D78214669
:1040A000134800F096F8044635B9204638BD11494A
:1040B000CA20FFF7C9FEF0E70C4B00221A700E4B26
:1040C0001B780E4AD35C5BB101220D490D4804F008
:1040D000ABFA0028E9D0074AD621FFF759FEE4E7FA
:1040E00001220749084803F087FEF2E7B4CA00201E
:1040F000A4CA0020508C02000000002084CD0020C3
:10410000C8CA0020040000200C00002010B50146A1
:10411000164800F04AF8044608B1204610BD144B7A
:104120001B78144AD35CB3B1134804F0EDF90028AE
:10413000F3D112490D4800F04CF80028EDD10C4B9A
:104140001B780C4AD35C53B101220C490A4804F095
:10415000E9F90446E1E70A4803F0C8FDE7E7012270
:104160000649074803F0CEFD0446D6E7B8CA00204A
:104170000000002084CD002004000020CCCA0020D4
:104180000C0000200B4651B15AB1511E11420AD108
:104190000360818000238360C360184670470E204F
:1041A0007047092070470920704710B48468C368BD
:1041B00082881B1B9A4203D204205DF8044B70478F
:1041C000C3681A4003689954C3680133C360002070
:1041D000F3E78268C3689A420AD0826883881340F2
:1041E0000268D35C0B7083680133836000207047E2
:1041F0000520704738B538B1012813D10E4B012284
:104200009A701C46154613E00B4B01225A701C464F
:10421000002504E01A68A2605B6828469847A368F6
:10422000002BF7D138BD1A6822615B682846984791
:104230002369002BF7D1F5E7D0CA002038B50D4B24
:104240001B784BB185240C4BD3F8003413B1094BC8
:1042500001229A70204638BD064DAB606B602B6121
:10426000EB60064800F062F8044600F077F801239E
:104270002B70E8E7D0CA002000000140F5410100A2
:1042800010B50446214B1B78A3B1204B9B78B3B1EA
:1042900014B16368012098470020FFF7B5FD1B4A61
:1042A000D3680133D3600020FFF7BEFD174BDB68F6
:1042B0002BB310BD1649F620FFF7C6FDE5E7002039
:1042C000FFF7A2FD6CB1114B1A693AB1944208D0C4
:1042D00013461B6813B19C42FBD102E022600B4BDA
:1042E0001C610A4BDB683BB1084AD3680133D360D9
:1042F0000020FFF799FDD9E700F056F8F4E70449EC
:104300004FF48970FFF7A0FDD3E700BFD0CA0020AB
:10431000108D0200034653E8000F00EA010243E853
:10432000002C9CF0000FF6D17047000010B5044639
:1043300048B1084B1B795BB9064B1C6001221A710E
:104340000020587110BD0449A420FFF77DFDF0E75F
:104350008520F7E7E4CA0020AC8D020008B50E4BBB
:104360001B7963B10D4B1B6813F0010F0CD00123B7
:104370004FF08042C2F81835094A137008BD094948
:10438000BD20FFF761FDEDE7044BC02283F8002359
:1043900001221A60EBE700BFE4CA002000E100E060
:1043A000ECCA0020AC8D020000B583B00C4B1B7929
:1043B00083B14FF080430022C3F80421D3F80421D5
:1043C0000192019A0222C3F8042301229A6003B0E9
:1043D0005DF804FB0349EA20FFF736FDE9E700BF7B
:1043E000E4CA0020AC8D020000B583B04FF08043DA
:1043F000D3F800319BB14FF080430022C3F8002175
:10440000D3F800210092009A0122C3F80823104B30
:104410005B7923B90E4B5A711B68002098474FF007
:104420008043D3F804317BB14FF080430022C3F8BE
:104430000421D3F804210192019A0222C3F808232F
:10444000034B1B680120984703B05DF804FB00BFD5
:10445000E4CA0020054B4FF0FF3243F82020072824
:1044600003D91844FF2380F84C307047F0CA00206D
:10447000234B93F85B30002B40D130B583B0204DF7
:10448000FF244FF0FF3C4FF6FF700DE0614602F055
:104490001F0221FA02F212F0010F1CBFEA1882F883
:1044A00024400133302B06D0DAB25909EED001296D
:1044B000F7D10146EBE70024E0B2FFF7CBFF013470
:1044C000092CF9D10E4B0020C3F85500A3F8590070
:1044D0000C4AE02182F80613402111600A4AC2F812
:1044E0007C01D2F87C11019101994FF00041C2F892
:1044F0000413012283F85B2003B030BD082070470D
:10450000F0CA002000E100E0006000402DE9F8431F
:1045100004460D461646470915D0012F40F0CD80C0
:104520004FF6FF7304F01F0823FA08F313F0010F8E
:1045300000F0C580654B234493F92430002B05DB44
:104540000820BDE8F8834FF0FF33EBE7AB78C3F307
:10455000400013F0020F0BBF09210821082300239C
:104560005A4A02EB830CACF1040C5CF8042FB2F154
:10457000FF3F04D001338B42F7D30420E1E74FFA29
:1045800083F9524A111981F8249042F8236010B936
:10459000134483F84C40B9F1FF3F7AD0AB7813F065
:1045A000040F23D113F0010F37D077B3012F72D04E
:1045B00047494FF4F670FFF747FC202C454B38BFB6
:1045C0004FF0A0431F2C98BFA04603EB8808D8F8F3
:1045D000003723F00203C8F800373F49E20804F02F
:1045E000070001238340885C03438B54AB7813F0AE
:1045F000020F31D1394B99442A7899F8543043EA63
:10460000821389F8543000209BE74FF0FF3323FAE0
:1046100008F313F0010FD0D1CAE76E78A7B1012FCC
:1046200042D02B494FF4F670FFF70EFC202C294B9B
:1046300038BF4FF0A0431F2C98BFA046B60008F526
:10464000E07843F82860C8E74FF0FF3323FA08F317
:1046500013F0010FEAD1E4E72A784FEA890909F15A
:10466000804909F5C049D9F8103523F44F3323F4B4
:104670004073C9F81035D9F81015230203F47C53A0
:10468000120402F4403213430B43C9F810350020E2
:1046900057E7042055E74FF6FF7323FA08F313F0AA
:1046A000010F85D00B4B90E74FF6FF7323FA08F309
:1046B00013F0010FB5D0074BC0E700F01F08084901
:1046C0004FF40C70FFF7C0FB34E700BFF0CA0020C6
:1046D000E48E02000003005045CB0020E8CA002011
:1046E000488E0200F0B583B004460E4647092DD02F
:1046F000012F40F0A9804FF6FF7304F01F05EB4037
:1047000013F0010F00F0A280534B234493F924309F
:10471000002B1EDB504B234493F92430072B5EDD26
:104720004D4A134493F84C309B09032B17D0012BAF
:104730000CBF022603267FB3012F33D14FF6FF7340
:10474000EB4013F0010F2DD0444B38E04FF0FF3316
:10475000D3E7434940F26120FFF776FBDAE7A7B1E0
:10476000012F68D03F494FF4F670FFF76DFB1F2C07
:1047700087BF2E46394B26464FF0A043D3F810256D
:10478000F24002F00102961CD5E74FF0FF33EB40F8
:1047900013F0010FEBD1E5E74FF0FF33EB4013F0DF
:1047A000010F04D12F494FF4F670FFF74DFB202C79
:1047B0002A4B38BF4FF0A0431F2C98BF254603EB70
:1047C0008503D3F8002722F44032C3F80027D3F83A
:1047D000002742EA0642C3F8002703B0F0BDDAB270
:1047E000072AFAD89A0002F1804202F5C042D2F8B4
:1047F000101541F00101C2F8101503F140029200BA
:1048000092B202F1804202F5C042002111601268AA
:104810000192019A002EE0D00F4A144494F924101A
:1048200052F82120002AD8D0012202FA03F30E4ABE
:10483000C2F80433D1E74FF6FF73EB4013F0010FDA
:1048400090D02E46054B99E700F01F0504494FF420
:104850001870FFF7F9FA57E7F0CA0020000300507C
:10486000488E0200E48E02000060004070B50446ED
:1048700045092AD0012D5DD14FF6FF7304F01F06C4
:10488000F34013F0010F57D02E4B234493F92430FB
:10489000002B1DDB2B4B234493F92430072B1DDC0D
:1048A000DAB2072A10D89A0002F1804202F5C0421B
:1048B000D2F8101521F00101C2F81015012202FAF8
:1048C00003F3214AC2F8083370BD4FF0FF33D5E738
:1048D0001E494FF42370FFF7B7FADBE7DDB1012D76
:1048E00020D01B494FF4F670FFF7AEFA202C194B7D
:1048F00038BF4FF0A0431F2C98BF264603EB860617
:10490000D6F8003723F44033C6F80037D6F800371E
:10491000C6F80037D8E74FF0FF33F34013F0010F2C
:10492000E4D1DEE74FF6FF73F34013F0010FD8D068
:10493000084BE3E700F01F06044940F28B20FFF725
:1049400083FAA1E7F0CA002000600040488E020010
:10495000E48E02000003005070B5044645091DD0E6
:10496000012D13D100F01F064FF6FF73F34013F033
:10497000010F0DD0D5B1012D1ED14FF6FF73F340BD
:1049800013F0010F18D03446144B20E000F01F063E
:10499000134940F2B220FFF757FAEBE700F01F0689
:1049A0004FF0FF33F34013F0010FF1D04FF0FF331E
:1049B000F34013F0010F04D10A494FF4F670FFF7EA
:1049C00043FA1F2C86BF3446044B4FF0A043D3F864
:1049D0001005E04000F0010070BD00BF0003005072
:1049E000488E0200E48E02002DE9F04F89B00025C8
:1049F000069507957E4B01227E4E2F467E4C03E0A6
:104A000052000433A3420CD019680129F8D1D6F81A
:104A100004131142F4D01F601968049104991543DE
:104A2000EEE7744BD3F87C31012B06D015F0FF0F65
:104A300038D001260024714F1FE06E4B0022C3F8CE
:104A40007C21D3F87C310593059B4FF0A043D3F82C
:104A500020250692C3F8202503F54073D3F82025BE
:104A60000792C3F8202515F0FF0F1DD045F0004533
:104A7000DFE776000134082C14D03542F9D0A300CA
:104A800003F1804303F5C043D3F81005D3F81015A4
:104A900057F82430002BECD0C1F30141C0F30520BE
:104AA0009847E6E7002D24DA544F554C97F95430D7
:104AB000B3F1FF3F0FD0DEB203F03F05C3F3C202F4
:104AC00020326A4412F8081C03F00703012202FA9C
:104AD00003F3194210D14FF0A043D3F820250692DA
:104AE000C3F82025D4F820350793C4F820351343A4
:104AF000DCD109B0BDE8F08F5FEA551B4FF6FF73BC
:104B000008BF4FF0FF3306F01F0A23FA0AF313F031
:104B1000010F50D01F2D54D9CDF808A00194019B4E
:104B2000029A03EB8208D8F80037C3F30149B9F1C0
:104B3000020F0CBF032302230393BBF1000F4FF6B8
:104B4000FF7308BF4FF0FF3323FA0AF313F0010F8E
:104B50003CD0D8F8003723F44033C8F80037D8F8F1
:104B60000037039A43EA0243C8F80037BBF1000F4D
:104B70004FF6FF7308BF4FF0FF3323FA0AFA1AF01B
:104B8000010F29D00123029A9340019AC2F82035DF
:104B90007B1993F9243057F82330002B9BD0B109AF
:104BA000032922D0B9F1020F1CD0B9F1030F92D121
:104BB000022990D119E013494FF4F670FFF744F938
:104BC000A8E702954FF0A0430193A8E70D494FF4E1
:104BD000F670FFF739F9BCE70A494FF4F670FFF7B2
:104BE00033F9CFE701297FF476AF2846984772E77B
:104BF000006100400060004020610040F0CA0020D9
:104C000000030050E48E0200F8B5044615460E4637
:104C100000293BD0002D3ED063792B4A42F8235027
:104C200003EB4303294AD35C002B4BD194F9047066
:104C3000B578072D34D8002F37DB6D01EDB207F1C1
:104C4000604707F5614787F8005394F90430002B5B
:104C500008DB590903F01F03012202FA03F31C4A7F
:104C600042F8213027683588B5F5805F24D2C7F82F
:104C700008556379154A03EB4303D118307948701E
:104C8000F07888700121D1540020F8BD11495120DD
:104C9000FFF7DAF8BEE70F495220FFF7D5F8BBE778
:104CA0000D496B20FFF7D0F8C5E707F00F076D013E
:104CB000EDB20A4BDD55C8E709494FF4BE70FFF766
:104CC000C3F8D4E70820E0E750CB00204CCB00200D
:104CD00000E100E00C8F0200A48F020014ED00E060
:104CE000CC8F020010B50446437903EB4303094A15
:104CF000D35C012B09D1236801221A60637903EB8D
:104D00004303044A0221D15410BD03498220FFF716
:104D10009BF8F0E74CCB00200C8F02002DE9F0410E
:104D200084B000244FF48035274E284FDFF8A08050
:104D300003E06D000134032C17D0D6F804332B4266
:104D4000F7D057F82430002BF3D0C6F84853C6F8F4
:104D50000853002347F8243057F824300393039B6B
:104D6000D8F80030E0B29847E3E7174BD3F80433A4
:104D700013F0010F0FD0144BD3F800315BB1124B7D
:104D80000022C3F80021D3F800310293029B104B9C
:104D90001B68042098470C4BD3F8043313F0020F20
:104DA0000FD0094BD3F804315BB1074B0022C3F895
:104DB0000421D3F804310193019B054B1B680520A6
:104DC000984704B0BDE8F08100B0004040B1004019
:104DD00050CB002010B586B04FF08043D3F8044389
:104DE00014F0040F13D0D3F8083183B14FF080438F
:104DF0000022C3F80821D3F808310093009B554BDB
:104E00001B68002B00F08180524B1B68984714F000
:104E1000200F15D04FF08043D3F8143183B14FF0F9
:104E200080430022C3F81421D3F814310193019B6D
:104E3000494B1B68002B6ED0474B1B6800209847DE
:104E400014F0400F15D04FF08043D3F8183183B1E0
:104E50004FF080430022C3F81821D3F81831029391
:104E6000029B3D4B1B68002B5BD03B4B1B6801201A
:104E7000984714F0800F15D04FF08043D3F81C31C1
:104E800083B14FF080430022C3F81C21D3F81C31BA
:104E90000393039B314B1B68002B48D02F4B1B689F
:104EA0000020984714F4807F15D04FF08043D3F84A
:104EB000203183B14FF080430022C3F82021D3F882
:104EC00020310493049B254B1B68002B35D0234BCA
:104ED0001B680120984714F4007F14D04FF08043E2
:104EE000D3F824317BB14FF080430022C3F8242152
:104EF000D3F824310593059B184B1B681BB3174B44
:104F00001B680220984706B010BD15494FF48B70FE
:104F1000FEF79AFF78E7124940F21F10FEF794FF60
:104F20008AE70F494FF49370FEF78EFF9DE70C4917
:104F300040F22F10FEF788FFB0E709494FF49B704D
:104F4000FEF782FFC3E7064940F23D10FEF77CFF03
:104F5000D5E700BF54CB002058CB00205CCB00200D
:104F6000F48F020008B5FFF735FFFFF73DFA08BDE3
:104F7000D0F81831002B00F08580F0B583B00C46D6
:104F8000414B984230D00023C0F81831D0F8183186
:104F90000193019B236873B3E57FFF2D1AD0A37F94
:104FA000002B37D02E466B092BD0012B54D005F0A7
:104FB0001F0736494FF4F670FEF746FF1F2D88BFD6
:104FC0003E46202D324A38BF4FF0A0420123B34065
:104FD000C2F80C35002363772372204650F8083B53
:104FE0006168984703B0F0BD2A4B1A684FF08043C0
:104FF000C3F8002EC7E7284940F29720FEF724FFA8
:10500000CAE705F01F074FF0FF33FB4013F0010F15
:10501000D4D1CEE72E466B0915D0012B27D005F051
:105020001F071A494FF4F670FEF70EFF1F2D88BFB9
:105030003E46202D164A38BF4FF0A0420123B34010
:10504000C2F80835C6E705F01F074FF0FF33FB40F5
:1050500013F0010FEAD1E4E705F01F074FF6FF73E5
:10506000FB4013F0010FA4D03E46094AAEE705F01D
:105070001F074FF6FF73FB4013F0010FD1D03E46E0
:10508000034ADBE7704700BF00F00240E48E0200F5
:105090000003005060CB00209090020008B5024948
:1050A0000248FFF765FF08BD64CB002000300040D8
:1050B00008B502490248FFF75BFF08BD88CB002016
:1050C0000030024008B502490248FFF751FF08BD11
:1050D000ACCB002000F002402DE9F04F83B0064633
:1050E000924699460D46002900F0B880347904EBC9
:1050F000C403C94901EB83010B7F002B40F0C08141
:105100003768C64B53F82410384603F081FB8046BD
:10511000002840F0B881C04B04EBC40203EB8201CD
:1051200043F822A0C1F804902B7B012B40F29B8016
:1051300095F80090CA465FEA591300F0BE80012B33
:1051400000F06C8209F01F0BB5494FF4F670FEF7C2
:105150007BFEB9F11F0F88BFDA46B9F1200FB14AC3
:1051600038BF4FF0A042012303FA0AF3C2F8083512
:1051700095F80090CA465FEA591300F0A980012B08
:1051800040F0F58109F01F0B4FF6FF7323FA0BF384
:1051900013F0010F00F0ED81DA46A24B0AF5E07A38
:1051A000012243F82A2095F80190B9F1FF0F40F051
:1051B0009A804FF0FF33009395F80290B9F1FF0FFA
:1051C00040F0D8804FF0FF330193A97804EBC4037B
:1051D000914A02EB830383F8201095F8039083F83B
:1051E0001F90B9F1FF0F00F06E812B79002B00F0BA
:1051F000F580CB465FEA591300F0E580012B00F003
:10520000C88109F01F0A86494FF4F670FEF71CFEAC
:10521000B9F11F0F88BFD346B9F1200F814A38BFBB
:105220004FF0A042012303FA0BF3C2F80C3595F8B6
:105230000390CA465FEA591300F00281012B40F047
:10524000258109F01F0B4FF6FF7323FA0BF313F0C0
:10525000010F00F01D81DA46724B28E17249AD2042
:10526000FEF7F2FD42E795F80090CA465FEA59134F
:1052700019D0012B00F0C58109F01F0B68494FF4CC
:10528000F670FEF7E1FDB9F11F0F88BFDA46B9F1FC
:10529000200F644A38BF4FF0A042012303FA0AF3FB
:1052A000C2F80C3564E709F01F0B4FF0FF3323FA07
:1052B0000BF313F0010FE6D1E0E709F01F0B4FF0FD
:1052C000FF3323FA0BF313F0010F7FF442AF3BE7F8
:1052D00009F01F0B4FF0FF3323FA0BF313F0010F0C
:1052E00040F04C8145E1CDF800905FEA591B28D091
:1052F000934500F0748109F01F03019348494FF46E
:10530000F670FEF7A1FDB9F11F0F25D8CA464FF080
:10531000A049012303FA0AF3C9F80C35BBF1000FC9
:105320001FD0BBF1010F1FD14FF6FF73019AD3407D
:1053300013F0010F18D00AF5E07A032349F82A3058
:105340003AE709F01F031A4601934FF0FF33D340A9
:1053500013F0010FD7D1D1E7DDF804A0DFF8C49036
:10536000D7E74FF0FF33E1E72D494FF4F670FEF732
:105370006BFDE0E7CDF804905FEA591319D0012BDB
:1053800000F0218109F01F0A25494FF4F670FEF75D
:105390005BFDB9F1200F234B38BF4FF0A043B9F1AB
:1053A0001F0F98BFCA460AF5E07A042243F82A2064
:1053B0000BE709F01F0A4FF0FF3323FA0AF313F04B
:1053C000010FE6D1E0E709F01F0A4FF0FF3323FA9F
:1053D0000AF313F0010F7FF41BAF14E7CB465FEA2B
:1053E000591323D0012B00F0E18009F01F0A0C496A
:1053F0004FF4F670FEF728FDB9F11F0F88BFD346B2
:10540000B9F1200F074A38BF4FF0A042012303FA39
:105410000BF3C2F808350AE764CB00202C91020098
:10542000E48E0200000300509090020009F01F0A71
:105430004FF0FF3323FA0AF313F0010FDCD1D6E764
:1054400009F01F0B4FF0FF3323FA0BF313F0010F9A
:1054500023D11DE043F002034CE043F0040349E094
:1054600043F0060346E074496B20FEF7EDFC57E07D
:1054700009F00F096D01EDB2704B03F8095059E0C6
:105480004FF008086FE04FF011086CE009F01F0BB7
:105490006B494FF4F670FEF7D7FCB9F11F0F88BFC8
:1054A000DA46B9F1200F674B38BF4FF0A0430AF539
:1054B000E07A032243F82A20297904EBC403624AE4
:1054C00002EB830399772B78C7F80835009BC7F860
:1054D0000C35019BC7F81035AB68C7F824352A7B1B
:1054E0006B7B003B18BF0123022AB6D0032AB7D03A
:1054F000012AAFD0C7F85435AB79C7F8C0350723B8
:10550000C7F8003504EBC4034F4A52F8233003B305
:1055100037684FEA173947F307376D79072DA2D857
:10552000002FA5DB6D01EDB207F1604303F5614388
:1055300083F8005333681A0B43F30733002B08DB5F
:105540005B0902F01F02012101FA02F23F4941F812
:1055500023203D4B04EBC40203EB82020021517770
:10556000134601221A77404603B0BDE8F08F09F0D8
:105570001F0B33494FF4F670FEF766FCB9F11F0FAD
:1055800088BFDA46B9F1200F2E4B38BF4FF0A04349
:1055900004E609F01F0A4FF6FF7323FA0AF313F02B
:1055A000010F3FF430AED346264A3BE609F01F0A0E
:1055B0004FF6FF7323FA0AF313F0010F3FF417AF0E
:1055C000D346204A22E709F01F0A4FF6FF7323FA59
:1055D0000AF313F0010F3FF4D7AE1A4BE3E609F0DC
:1055E0001F0A4FF6FF7323FA0AF313F0010F08BFE7
:1055F000CDF804A03FF482AECDF804A0DFF84490CB
:1056000087E609F01F0B4FF6FF7323FA0BF313F035
:10561000010F3FF433AEDA460A4A3EE609F01F0BAB
:105620004FF6FF7323FA0BF313F0010F3FF48CAD29
:10563000DA46044A97E500BFA48F020014ED00E0AB
:10564000E48E02000003005064CB002000E100E083
:105650002DE9F8430646047904EBC402494B03EBF9
:1056600082031B7F002B55D004EBC403454A52F83C
:105670002330002B78D035682A0B45F30733002BF5
:1056800014DB5B0902F01F02012101FA02F2203350
:105690003D4941F82320BFF34F8FBFF36F8F35682B
:1056A00004EBC403374A52F82330B3B1374BC5F883
:1056B000083304EBC403334A02EB83035B7F63B11B
:1056C00001236B61D5F80431002BFBD004EBC4033C
:1056D0002C4A02EB830300225A7704EBC403294AC5
:1056E00002EB830393F82070FF2F19D10023C5F834
:1056F0000035274B9D4204BF01225A60306803F0F9
:10570000ADF804EBC4041F4B03EB840400232377A0
:10571000BDE8F8831F494FF4AE70FEF795FBA3E791
:10572000B8467B0916D0012B20D007F01F091A4973
:105730004FF4F670FEF788FB1F2F88BFC846202F56
:10574000164B38BF4FF0A04308F5E078022243F82B
:105750002820CBE707F01F094FF0FF3323FA09F3A6
:1057600013F0010FE8D1E2E73568B6E707F01F094B
:105770004FF6FF7323FA09F313F0010FD7D0C84691
:10578000064BE1E764CB002000E100E05201080095
:1057900000F0024090900200E48E020000030050EE
:1057A0002DE9F04782B007460D461646047904EB12
:1057B000C402B64B03EB82031B7F002B00F0AC80CE
:1057C0002B68002B00F0AE80AB68002B00F0B4809B
:1057D0003B79022B04D8EB68B3F5803FC0F0B28070
:1057E000AB494FF40C70FEF72FFB04EBC403A74A40
:1057F00002EB83035B7F002B40F07F8104EBC4034B
:1058000052F8233043B116F0140F05D104EBC40352
:1058100002EB830301225A7704EBC40C9B4B03EB8E
:105820008C0C0CF10C0E95E80F008EE80F009CF824
:105830001F80B8F1FF0F22D09CF81E30002B00F023
:105840009880C1465FEA581300F08880012B00F071
:10585000788108F01F0A8F494FF4F670FEF7F4FACA
:10586000B8F11F0F88BFD146B8F1200F8A4A38BF60
:105870004FF0A042012303FA09F3C2F808352A6861
:105880002AB102F06043B3F1005F40F09A80AB6848
:105890002BB103F06043B3F1005F40F092803B68AE
:1058A0006968C3F84425C3F84815EA68A968C3F8CD
:1058B0003415C3F83825794A934200F08D800022D0
:1058C000C3F81821D3F818210192019A16F0010F9C
:1058D00014BF01220022C3F8502516F0020F14BF96
:1058E00001220022C3F8402516F0080F04BF012250
:1058F0001A6104EBC402654951F82220002A00F025
:10590000948016F004004FF040021ABFC3F8082339
:105910000020C3F804235CE05D4940F22D20FEF72F
:1059200093FA4DE76B68002B3FF44EAF584940F2B5
:105930002E20FEF789FA47E7EB684BB93B79022B3B
:105940003FF64EAF6B68B3F5803FFFF44EAF47E7CD
:105950004F4940F22F20FEF777FA39E708F01F0A87
:105960004FF0FF3323FA0AF313F0010F7FF478AFFF
:1059700071E7C1465FEA581319D0012B00F0EE80A1
:1059800008F01F0A43494FF4F670FEF75DFAB8F1CC
:105990001F0F88BFD146B8F1200F3F4A38BF4FF0E4
:1059A000A042012303FA09F3C2F80C3567E708F0B7
:1059B0001F0A4FF0FF3323FA0AF313F0010FE6D169
:1059C000E0E704EBC404314B03EB8404002363776A
:1059D000102002B0BDE8F08729686D684FF0804262
:1059E000D2F8000E2E4A1060002D3FF468AF21F46B
:1059F000FF5222F01F022B4882420FD80D44C2F3FF
:105A00004F30012181400020274F0843490002F513
:105A10000052954204D9BA42F7D301E04FF48070A6
:105A20004FF08042C2F8000E49E7D3F81821002A4F
:105A3000FBD01A4A934222D004EBC403134A02EB70
:105A40008303DD7FFF2D5AD004EBC40402EB8404F2
:105A5000A37FA3B32C466B0928D0012B51D005F0AE
:105A60001F060C494FF4F670FEF7EEF91F2D88BFA4
:105A70003446202D084A38BF4FF0A0424BE0084B77
:105A80001A684FF08043C3F8002ED5E764CB00209E
:105A900090900200E48E02000003005000F00240EB
:105AA00060CB0020FFFF00200020012005F01F0632
:105AB0004FF0FF33F34013F0010FD7D1D1E72C465D
:105AC0006B0911D0012B2CD005F01F062A494FF489
:105AD000F670FEF7B9F91F2D88BF3446202D274AEE
:105AE00038BF4FF0A04226E005F01F064FF0FF330D
:105AF000F34013F0010FEED1E8E7112069E7002031
:105B000067E705F01F064FF6FF73F34013F0010F30
:105B1000A7D03446194A0123A340C2F80C3500200F
:105B200057E705F01F064FF6FF73F34013F0010F20
:105B3000CCD03446114A0123A340C2F808350020D6
:105B400047E708F01F0A4FF6FF7323FA0AF313F032
:105B5000010F3FF480AED146084A8BE608F01F0AD9
:105B60004FF6FF7323FA0AF313F0010F3FF40AAF65
:105B7000D146024A15E700BFE48E02000003005040
:105B80002DE9F04383B00446174605790E460029F7
:105B900000F09380002F00F0958005EB4503544AF8
:105BA00002EB83031B7A002B40F0A0802368514A4C
:105BB00093420FD002F5805293420BD002F58052EF
:105BC000934207D002F58032934203D002F580520F
:105BD000934202D1B378032B03D947495F20FEF7E4
:105BE00033F9434B05EB450203EB820143F8227086
:105BF00073684B6063797BB100221046D3B29B007F
:105C000003F5A0732168C850CB580193019B013262
:105C10006179D3B29942F1D827684FEA173947F32F
:105C2000073796F80380B8F1070F50D8002F53DBE1
:105C30004FEA48185FFA88F807F1604303F56143BB
:105C400083F8008323681A0B43F30733002B08DB28
:105C50005B0902F01F02012101FA02F2274941F813
:105C600023202168D1F80425737803F0030322F080
:105C700003021343C1F804352168D1F80825B3782D
:105C800003F0030322F003021343C1F8083521682F
:105C9000D1F81025337803F00F0322F00F021343DD
:105CA000C1F8103505EB4505114B03EB85050123C4
:105CB0002B72002003B0BDE8F0830F494A20FEF7A5
:105CC000C3F867E70C494B20FEF7BEF865E70C49BF
:105CD0006B20FEF7B9F8A9E709F00F094FEA481859
:105CE0005FFA88F8074B03F80980ABE70820E1E783
:105CF000D0CB0020008000403891020000E100E09D
:105D0000A48F020014ED00E010B50446037903EB04
:105D100043030B4A02EB83031B7A012B0BD123684D
:105D200001221A60237903EB4303054A02EB830344
:105D300002221A7210BD03498F20FEF785F8EEE7A4
:105D4000D0CB00203891020070B483B04FF480347F
:105D50008C409BB18B0003F5A07305680026EE50C4
:105D6000EB580193019B0368C3F80443036801F5F2
:105D7000A87143F8212003B070BC70470368C3F8D2
:105D80000843F3E738B50568D5F8004240F2011E34
:105D90000EFA01FE24EA0E04C5F800420468D4F8A5
:105DA00000522B43C4F800329DF81030FFF7CCFFAF
:105DB00038BD00002DE9F04182B0134C0025134F8F
:105DC0004FF48036DFF8488003E001350434042DB9
:105DD00016D02368002BF8D0D7F8043306FA05F163
:105DE0001942F2D00023236023680193019BA4F59C
:105DF0000040D8F80030D8F8041080B29847E4E7A3
:105E000002B0BDE8F08100BF40810040008000404A
:105E1000D0CB002070B48BB00346D0F8042122B35D
:105E20000022C0F80421D0F804210192019A012235
:105E300091F82F00D8B10020C3F82401D3F82441F1
:105E40000494049CC3F81C01D3F81C410394039CE4
:105E5000C3F80801D3F8080102900298002A40F024
:105E60008C8001200BB070BC70470022E0E7D3F8B3
:105E700024415CB10020C3F82401D3F8240105902B
:105E800005980120586181F82F00E7E7D3F81C41FD
:105E9000002C32D00024C3F81C41D3F81C410694D6
:105EA000069C4C6B01344C63D3F824515DB1002047
:105EB000C3F82401D3F82401079007980120586102
:105EC00081F82F00CAE78D6AAC4204D2486A005DAF
:105ED000C3F81C05C2E791F82C4034B90C6A14F0E1
:105EE000400F05D101205861B8E70122DA61B9E716
:105EF0000122DA6181F82D20B4E7D3F80841002CA3
:105F0000ACD00024C3F80841D3F808410894089C99
:105F1000D3F824415CB10020C3F82401D3F8240154
:105F2000099009980120586181F82F0096E74C6B81
:105F30008D6AAC4292D2D3F818654D6A2E554C6BDF
:105F400001344C638D6A05F1FF3C644504D0AC42DA
:105F50000AD00120186281E70E6A16F0400F24D1A2
:105F60000220C3F80002F4E70C6A14F0400F3FF47B
:105F700075AF022381F82D3074E7002081F82D00E1
:105F800091F82F0008B100206CE74D6B8C6AA54298
:105F900006D00022C3F800250522C3F800250246DA
:105FA00082F0010281F82F205CE7AC42D1D1E0E71A
:105FB00030B587B004460D46414B05930023C0F829
:105FC0000431D0F804210492049AC0F82431D0F8A6
:105FD00024210392039AC0F81C31D0F81C210292AC
:105FE000029AC0F80831D0F808210192019AC0F84D
:105FF00000324B6381F82F300123036291F82D307A
:10600000012B1CBF012383604B6B8A6A93420ED223
:106010004A6AD35CC0F81C352B68CBB140F28623AA
:10602000AB60AB68C4F80433002007B030BD91F812
:106030002C3053B90B6A13F0400F4FF001031ABF15
:10604000C36181F82D304361E6E70123C361E3E7D3
:10605000059B002B0ADD29462046FFF7DBFE28B111
:10606000059B013B0593059B002BF4DC95F82F3035
:10607000BBB1D4F8C434C4F8C434F3B113F0010F85
:106080000CBF03204FF4024013F0020F48F201222C
:1060900018BF104613F0040F48F2022318BF184629
:1060A00000E00020059B002BBFDC0023C4F8003576
:1060B0000523C4F800350320B7E70320F2E700BF4B
:1060C000A086010030B587B004460D463A4B0593D3
:1060D0000023C0F80431D0F804210492049AC0F8D7
:1060E0002431D0F824210392039AC0F81C31D0F84F
:1060F0001C210292029AC0F80831D0F808210192BE
:10610000019A4B6381F82F308B6A012B15D0012344
:10611000C4F800320123236295F82D30022B1CBFF6
:10612000012323602B6883B140F28623AB60AB6808
:10613000C4F80433002007B030BD0B6A13F0400FE1
:10614000E5D10223C0F80032E4E7059B002B0ADD0D
:1061500029462046FFF75EFE28B1059B013B0593CB
:10616000059B002BF4DC95F82F30BBB1D4F8C43478
:10617000C4F8C434F3B113F0010F0CBF03204FF483
:10618000024013F0020F48F2012218BF104613F02C
:10619000040F48F2022318BF184600E00020059BB8
:1061A000002BC8DC0023C4F800350523C4F80035F3
:1061B0000320C0E70320F2E7A086010030B587B0D6
:1061C0003E4B1B682BB33D494FF04020FFF722FEAA
:1061D000002850D1394B93F82F30002B55D1374B35
:1061E0001A7B931EDBB2012B19D9344D01AC05F19A
:1061F0000C0CBCE80F000FC4DCF800302360002357
:106200008DF8003085F830302B6A13F0040F2DD054
:1062100031E02B4940F2BA20FDF716FED3E7274BB9
:10622000596A9B699942E0D1244BD96959625969ED
:106230009962196AC1F3401183F82C10002183F888
:106240002D10032A05D01D494FF04020FFF73AFFDB
:1062500011E019464FF04020FFF7AAFE0BE00123A2
:106260008DF80030154B002283F83020134B1A684C
:1062700059686846904707B030BD13F0010F14BF4E
:10628000032304238DF80030ECE70DF1040C0D4CD2
:106290000FCCACE80F002368CCF800304FF0402260
:1062A000D2F8C434C2F8C43413F0020FD7D113F0BB
:1062B000040FE2D002238DF80030D3E7DCCB0020BE
:1062C000D4910200E8CB00200A4BD3F800317BB117
:1062D00000B583B0084B1B689847064B0022C3F8F3
:1062E0000021D3F800310193019B03B05DF804FB5A
:1062F000704700BF000001401CCC002010B50446D0
:10630000074B1B78022B06D104F5C074054B064AD7
:1063100043F8242010BD0549A220FDF795FDF3E7C1
:1063200018CC0020000001403546526E6C920200ED
:1063300000B587B003788DF8043043680293836812
:106340008DF80C30C368049303698DF81430054B45
:1063500053F82130044A52F8211001A8984707B099
:106360005DF804FB30CC002020CC002070B584B058
:106370008C46144686461EF8045B1C4A42F82540AB
:106380001B4A42F825301B4B0FCB04AE06E90F0029
:106390009CF800308DF800309CF801308DF8013009
:1063A0009CF802308DF802309CF803308DF80330F1
:1063B0009CF804308DF805309CF805308DF80630D7
:1063C000DCF8083002939CF80C308DF80C309CF807
:1063D0000D308DF80D30002C2B46074A08BF2246A1
:1063E00069467046FEF778FE04B070BD30CC0020E0
:1063F00020CC002004930200316301004FF0805351
:10640000D3F83001082814BF002001207047000095
:1064100000B583B00023094A1370094A1370ADF820
:1064200005308DF8073001238DF80430054B1B68CB
:1064300001A8984703B05DF804FB00BF40CC0020E2
:1064400070CD00206CCD00207047000010B582B0E8
:106450002C4BD3F80044C3F80044BFF36F8FBFF355
:106460004F8FBFF36F8FBFF34F8F14F4807F0ED029
:10647000254B01221A700023ADF805308DF8073046
:1064800002238DF80430214B1B6801A8984714F4AF
:10649000007F0DD000231C4A1370ADF805308DF835
:1064A000073003238DF80430184B1B6801A8984768
:1064B00014F4806F1DD0144B1B78D3B1114BD3F85B
:1064C0002C35C3B90023104A13700E4A0121C2F8BB
:1064D00008159165BFF36F8FBFF34F8FADF805308F
:1064E0008DF8073004238DF80430084B1B6801A891
:1064F000984702B010BD064940F2F540FDF7A4FCF4
:10650000E0E700BF0070024040CC00206CCD0020CE
:106510001493020000B583B000238DF804300C4BB7
:10652000D3F82025ADF80620D3F8C034002B14BFD3
:106530004FF001214FF48071064A13680B4313603A
:10654000054B1B6801A8984703B05DF804FB00BF2A
:106550000070024048CC00206CCD002008B5FFF749
:106560004DFF18B10E4B0022C3F81C2C0D4B00221E
:106570001A700D4B93F89E30032B04D00A4BD3F8BE
:10658000903033B108BD6FF001010848FDF7C2FE3D
:10659000F8E76FF001010548FDF7BCFEF2E700BF28
:1065A0000070024041CC00204CCC002044CC0020A4
:1065B00000B583B0FFF722FF18B1134B0022C3F8D8
:1065C0001C2C124B00221A70114B93F88E30032BA7
:1065D00003D00F4BD3F8803013B103B05DF804FB48
:1065E0006FF080710B48FDF795FE06238DF804309F
:1065F00008238DF8063000238DF80730064B1B6802
:1066000001A89847E9E700BF0070024041CC002094
:106610004CCC002044CC00206CCD002000B583B0D1
:10662000FFF7ECFE18B1164B0022C3F81C2C154BDB
:1066300000221A70144B93F81E31032B06D0124B14
:10664000D3F8103143B103B05DF804FB6FF48071EF
:106650000E48FDF75FFEF6E76FF480710B48FDF71B
:1066600059FE06238DF8043088238DF80630002368
:106670008DF80730064B1B6801A89847E3E700BF79
:106680000070024041CC00204CCC002044CC0020C3
:106690006CCD002008B5FFF7B1FE18B10E4B0022FB
:1066A000C3F81C2C0D4B00221A700D4B93F8CE3002
:1066B000032B04D00A4BD3F8C03033B108BD6FF0C0
:1066C00008010848FDF726FEF8E76FF008010548C5
:1066D000FDF720FEF2E700BF0070024041CC002031
:1066E0004CCC002044CC002008B5FFF787FE18B141
:1066F0000E4B0022C3F81C2C0D4B00221A700D4BC0
:1067000093F80E31032B04D00A4BD3F8003133B188
:1067100008BD6FF080010848FDF7FCFDF8E76FF059
:1067200080010548FDF7F6FDF2E700BF007002406A
:1067300041CC00204CCC002044CC002008B5FFF711
:106740005DFE18B10E4B0022C3F81C2C0D4B00222D
:106750001A700D4B93F8AE30032B04D00A4BD3F8CC
:10676000A03033B108BD6FF002010848FDF7D2FD3B
:10677000F8E76FF002010548FDF7CCFDF2E700BF36
:106780000070024041CC00204CCC002044CC0020C2
:1067900008B5FFF733FE18B10E4B0022C3F81C2CCE
:1067A0000D4B00221A700D4B93F8FE30032B04D0D2
:1067B0000A4BD3F8F03033B108BD6FF04001084800
:1067C000FDF7A8FDF8E76FF040010548FDF7A2FDD1
:1067D000F2E700BF0070024041CC00204CCC00200A
:1067E00044CC002008B5FFF709FE18B10E4B00227B
:1067F000C3F81C2C0D4B00221A700D4B93F8EE3091
:10680000032B04D00A4BD3F8E03033B108BD6FF04E
:1068100020010848FDF77EFDF8E76FF020010548EC
:10682000FDF778FDF2E700BF0070024041CC002088
:106830004CCC002044CC002008B5FFF7DFFD18B198
:106840000E4B0022C3F81C2C0D4B00221A700D4B6E
:1068500093F8DE30032B04D00A4BD3F8D03033B199
:1068600008BD6FF010010848FDF754FDF8E76FF020
:1068700010010548FDF74EFDF2E700BF0070024031
:1068800041CC00204CCC002044CC002008B5FFF7C0
:10689000B5FD18B10E4B0022C3F81C2C0D4B002285
:1068A0001A700D4B93F8BE30032B04D00A4BD3F86B
:1068B000B03033B108BD6FF004010848FDF72AFD80
:1068C000F8E76FF004010548FDF724FDF2E700BF8B
:1068D0000070024041CC00204CCC002044CC002071
:1068E00070B582B0054601248C405D4A136823438D
:1068F000136010F0800F11D15A4B1B681C420BD152
:1069000006238DF804308DF8060001238DF807303A
:10691000554B1B6801A8984702B070BD00F00F06E8
:10692000082E3CD8514B33F8163003F1804303F561
:106930001C331A6812B300221A60BFF36F8FBFF3C3
:106940004F8F802D6BD015F0080F2ED1002E32D036
:10695000FFF754FD18B1464B0022C3F81C2C454BE1
:1069600000221A70082E33D8434B310103EB061274
:10697000927B032A4CD05B58002B3DD0394B1B68CF
:106980001C42C9D106238DF804308DF8065000232F
:106990008DF80730344B1B6801A89847BCE737498E
:1069A0004FF4B970FDF750FABCE7344940F2B73004
:1069B000FDF74AFACAE731494FF46E70FDF744FA21
:1069C000FFF71CFD0028C6D12A4B00221A70CBE726
:1069D0002A4940F2A220FDF737FA274B310103EB99
:1069E0000612927B032A0ED05B58002BC6D1234996
:1069F00040F2B520FDF728FA0121B140C9431948FA
:106A0000FDF788FCBAE71D4940F2B520FDF71CFAF6
:106A10000121B140C9431348FDF77CFCAEE7FFF705
:106A2000EDFC18B1124B0022C3F81C2C114B0022B4
:106A30001A70134B93F89E30032B0AD0104BD3F8E7
:106A40009030002B9AD16FF001010648FDF762FCEF
:106A500094E76FF001010348FDF75CFC8EE700BF8F
:106A600048CC002044CC00206CCD0020D8930200FC
:106A70000070024041CC0020DCCC002014930200C6
:106A80004CCC002038B50B4B1C7804F00F05082DBA
:106A900009D814F0800F14BF00211021294420468A
:106AA000FFF71EFF38BD044940F2B520FDF7CCF9D1
:106AB000EFE700BF70CD00201493020038B5044604
:106AC00000F00F05082D0BD814F0800F13D114F02F
:106AD000080F16D105F594750E4B53F8250038BDF7
:106AE0000D4940F28520FDF7AFF90C4940F25F40B7
:106AF000FDF7AAF9E8E709494FF48C60FDF7A4F91E
:106B0000E5E7044BD3F8C00410F4803F18BF002021
:106B1000E5E700BF0070024014930200B09302004A
:106B2000A94B1B78002B40F04E812DE9F04F87B028
:106B3000A64B1B68A64A15682B4000F0E280DFF8E0
:106B4000ACA213F001253CD095FAA5F5002D3FD05D
:106B5000B5FA85F50F2D3CD845F0800805F00F04F7
:106B6000082C00F29F804FFA88FB0194994E4FEA5F
:106B7000041906EB041756F8093023B9964940F278
:106B80006150FDF761F956F80930BA89796804A8AF
:106B9000984710B9002346F80930FFF72FFC00286A
:106BA00040F0B8800123884A13708949AB400A68D5
:106BB00022EA03030B60059BBA681A44BA60049A80
:106BC000BDE093FAA3F3002B6AD0B3FA83F5C1E7D3
:106BD0002025A5F110045FFA84F804F00F04082CB6
:106BE00060D84FFA88FB01944FEA04190AEB0417A6
:106BF0005AF80930002B00F0E0804046FFF75EFFB6
:106C000006465AF809900346BA89796804A8C84725
:106C1000049B002B51D0059BB34258D38146B3420D
:106C200072D1B9F1000F01D100233B60FFF7E6FB01
:106C300000286FD10123644A13706549AB400A688C
:106C400022EA03030B60059BBA681A44BA60049AEF
:106C500018F0080F00F089806049C1F8A027C1F83A
:106C6000A437082C00F28B80282303EB840303F164
:106C7000804303F51C3301221A60BFF36F8FBFF30B
:106C80004F8F574D574B15EA2B0538BF1D46019BBB
:106C900005EB4305DFF840814FF4B9774F4E85E0AF
:106CA000202596E74C4940F2A220FDF7CDF84FFA97
:106CB00088FBBBF1000F96DA57E78146059B002B56
:106CC000AFD0454940F27D50FDF7BEF8A9E7022458
:106CD000BC730121A940C9433C48FDF71BFB0623B7
:106CE0008DF80C308DF80E808DF80F403E4B1B68F0
:106CF00003A89847354B1B68354A15682B407FF42D
:106D000020AF07B0BDE8F08F334940F28C50FDF75B
:106D10009BF886E7314B8222C3F81C2C01232A4AB8
:106D200013702B49AB400A6822EA03030B60059BF2
:106D3000BA681A44BA60049ABBF1000F88DA18F0F6
:106D4000080F08D02549C1F8A026C1F8A436082CA0
:106D500015D8042389E7214904EB840001EB800066
:106D6000C0F80026C0F80436F1E71C4904EB8400A3
:106D700001EB8000C0F80027C0F8043771E716491E
:106D800040F29220FDF760F8BBF1000FB4BF04237E
:106D900028236AE72B8803F1804303F51C331B6823
:106DA000002BAED1D6F80031002BAAD1082CF1D996
:106DB00041463846FDF748F8ECE7074940F2615094
:106DC000FDF742F819E7704741CC002044CC002081
:106DD00048CC0020DCCC002014930200007002405C
:106DE000D8930200EC9302006CCD00204CCC002024
:106DF00070B5134BD3F86C44C3F86C44BFF36F8F7A
:106E0000BFF34F8FC4B1202601250AE03146A1F11E
:106E10001000C0B205FA01F324EA0304FFF760FD95
:106E200054B194FAA4F10029F0D0B1FA81F10F29FC
:106E3000EDD841F08000EDE7FFF772FE70BD00BFB6
:106E40000070024000B583B0FFF7D8FA18B1164BB6
:106E50000022C3F81C2C154B00221A70144B93F817
:106E60003E30032B07D0124B1B6B53B1FFF758FE7C
:106E700003B05DF804FB6FF400210E48FDF74AFAF9
:106E8000F4E76FF400210B48FDF744FA06238DF870
:106E9000043003238DF8063000238DF80730064BAD
:106EA0001B6801A89847E1E70070024041CC002030
:106EB0004CCC002044CC00206CCD002000B583B029
:106EC000FFF79CFA18B1164B0022C3F81C2C154B87
:106ED00000221A70144B93F86E30032B07D0124B1C
:106EE0001B6E53B1FFF71CFE03B05DF804FB6FF49B
:106EF00080010E48FDF70EFAF4E76FF480010B48AD
:106F0000FDF708FA06238DF804308DF806300023CB
:106F10008DF80730064B1B6801A89847E2E700BFD1
:106F20000070024041CC00204CCC002044CC00201A
:106F30006CCD002000B583B0FFF760FA18B1164B96
:106F40000022C3F81C2C154B00221A70144B93F826
:106F50007E30032B07D0124B1B6F53B1FFF7E0FDC0
:106F600003B05DF804FB6FF400010E48FDF7D2F9A1
:106F7000F4E76FF400010B48FDF7CCF906238DF818
:106F8000043007238DF8063000238DF80730064BB8
:106F90001B6801A89847E1E70070024041CC00203F
:106FA0004CCC002044CC00206CCD002000B583B038
:106FB000FFF724FA18B1164B0022C3F81C2C154B0E
:106FC00000221A70144B9B7F032B07D0124B1B69B6
:106FD00053B1FFF7A5FD03B05DF804FB6FF400317A
:106FE0000E48FDF797F9F4E76FF400310B48FDF711
:106FF00091F906238DF8043001238DF80630002323
:107000008DF80730064B1B6801A89847E1E700BFE1
:107010000070024041CC00204CCC002044CC002029
:107020006CCD002000B583B0FFF7E8F918B1164B1E
:107030000022C3F81C2C154B00221A70144B93F835
:107040005E30032B07D0124B1B6D53B1FFF768FD69
:1070500003B05DF804FB6FF400110E48FDF75AF918
:10706000F4E76FF400110B48FDF754F906238DF88F
:10707000043005238DF8063000238DF80730064BC9
:107080001B6801A89847E1E70070024041CC00204E
:107090004CCC002044CC00206CCD002000B583B047
:1070A000FFF7ACF918B1164B0022C3F81C2C154B96
:1070B00000221A70144B93F82E30032B07D0124B7A
:1070C0001B6A53B1FFF72CFD03B05DF804FB6FF4AE
:1070D00080210E48FDF71EF9F4E76FF480210B487C
:1070E000FDF718F906238DF8043002238DF80630D9
:1070F00000238DF80730064B1B6801A89847E1E78D
:107100000070024041CC00204CCC002044CC002038
:107110006CCD002000B583B0FFF770F918B1164BA5
:107120000022C3F81C2C154B00221A70144B93F844
:107130004E30032B07D0124B1B6C53B1FFF7F0FC02
:1071400003B05DF804FB6FF480110E48FDF7E2F820
:10715000F4E76FF480110B48FDF7DCF806238DF897
:10716000043004238DF8063000238DF80730064BD9
:107170001B6801A89847E1E70070024041CC00205D
:107180004CCC002044CC00206CCD0020034B0122CD
:10719000DA64BFF36F8FBFF34F8F70470070024008
:1071A00000B583B0FFF72AF918B1154B0022C3F8D8
:1071B0001C2C144B00221A70134B9B7B032B07D003
:1071C000114B1B6853B1FFF7E1FF03B05DF804FBFF
:1071D0006FF480310D48FDF79DF8F6E76FF48031CC
:1071E0000A48FDF797F806238DF8043000238DF840
:1071F00006308DF80730064B1B6801A89847E4E776
:107200000070024041CC00204CCC002044CC002037
:107210006CCD002070B5044646B2002E17DB00206E
:10722000FCF7F2FD04F00F05082D1CD81F4905F1ED
:107230001002012303FA02F20B6823EA02030B6037
:1072400014F0080F26D00020FCF7EEFD70BD1849A1
:1072500040F6DF00FCF7F8FD0020FCF7D5FD04F058
:107260000F05082D06D9124940F2B520FCF7ECFDB8
:10727000002EDBDA0D49012303FA05F20B6823EA3D
:1072800002030B6014F0080FDDD10A4940F283407D
:10729000FCF7DAFD05F59475074B002243F825202D
:1072A000BFF36F8FBFF34F8FCDE700BF48CC0020F7
:1072B00014930200B0930200007002402DE9F043E5
:1072C00083B004460020FCF79FFD04F00F07082F51
:1072D00030D814F0800F00F0B08014F0080F65D0A3
:1072E000624B1B68624A166866EA0306082F00F2C2
:1072F0008A800125BD402E4252D05D4A136823EAA0
:10730000050313605B4A380102EB071757490B6806
:107310002B430B60002313500323BB7306228DF80D
:1073200004208DF806408DF80730534B1B6801A8E8
:10733000984735E0514940F2A220FCF785FD14F052
:10734000800FCAD1DFF83C814FEA071908EB071517
:10735000474B1E68F643494940F2B520FCF774FDDF
:107360001037012303FA07F73E4214D1002348F8EF
:107370000930424E314640F2B520FCF765FDFC4332
:107380003B4A136823EA07071760314640F2B520ED
:10739000FCF75AFD65E02046FFF73CFF0323AB7383
:1073A0000020FCF741FD03B0BDE8F083802C12D033
:1073B00007F2DA335B00324AC2F80038D2F80438F8
:1073C000DBB2D2F8041843F002030B43C2F80438CE
:1073D000D2F8043884E72A4A40F2B473C2F800387D
:1073E000D2F80438DBB2D2F8041843F004030B439C
:1073F000C2F80438D2F804381C4B1B681C4A1668C3
:1074000066EA030675E71D4940F2B520FCF71CFD4E
:107410000125BD402E42C3D0184E314640F2B52062
:10742000FCF712FD124A136823EA05031360314684
:1074300040F2B520FCF708FD64E71249380101EB82
:1074400007150B4B1A681037012303FA07F737EAC1
:107450000203A0D100230B50FC4322EA0707044B90
:107460001F60024A13682340136097E748CC00204E
:1074700044CC0020DCCC00206CCD00201493020012
:10748000007002404CCC0020F0B583B0204BD3F804
:107490008064204B1C68E443A4B21F4B1B681C4350
:1074A0001E4B1F7807F00F05082D26D817F0800F08
:1074B00014BF002310231D44012303FA05F52542C0
:1074C00021D106F08006154B1E706FF00111124895
:1074D000FCF720FF0F4A136843F0010313600023F9
:1074E000ADF805308DF8073005238DF804300C4BCE
:1074F0001B6801A8984703B0F0BD0A4940F2B520C7
:10750000FCF7A2FCD2E7054B1878FFF7D7FED8E7C7
:107510000070024048CC002044CC002070CD0020F8
:107520006CCD0020149302002DE9F843254BD3F8CD
:107530000413002942D0002520272E46012405E00F
:107540003B4609E004FA03F3994314D091FAA1F3FE
:10755000002BF5D0B3FA83F398001B4A024410685D
:107560000028EFD01660BFF36F8FBFF34F8F04FA80
:1075700003F21543E6E705F4000935F4000513D0DE
:107580004FF02008114F012607E0444657F82430F9
:10759000984706FA04F39D4306D095FAA5F4002C0B
:1075A000F3D0B4FA84F4F1E7FFF7BAFAB9F1000FB7
:1075B00001D1BDE8F883FFF767FFFAE7FFF7B0FAFC
:1075C000F7E700BF00700240007102400094020023
:1075D00000B585B003788DF8003043680193836867
:1075E0008DF80830C3680393054B53F82130054AE2
:1075F00052F821106846984705B05DF804FB00BFBB
:107600007CCD002074CD002000B585B003788DF8C6
:1076100000304368019383688DF80830C368039392
:10762000054B53F82130054A52F821106846984717
:1076300005B05DF804FB00BF7CCD002074CD0020B8
:107640002DE9F04188B005460C46164607781D4BDB
:1076500043F827200A691C4B43F82720012F1ED02E
:10766000DFF87480637F08F80730EE46A446BCE874
:107670000F00AEE80F009CE80F008EE80F000497A3
:107680002B7818F8033093B1002E104A08BF324609
:107690006946281D00F026FD08B0BDE8F0814B7F4B
:1076A000002BDDD10A497620FCF7CEFBD8E7002E6F
:1076B000084A08BF3246694605F10C0000F01CF983
:1076C000EAE700BF7CCD002074CD0020D175010019
:1076D000649402000976010084CD002082B000236A
:1076E000C0F81C31D0F81C310193019B0B6A8A68E9
:1076F000D25C0B6A01330B62C0F81C2502B07047E4
:1077000082B003680022C3F82421D3F82431019306
:10771000019B0368C3F80821D3F808310093009B4C
:10772000036801221A6002B0704782B08B6983B18E
:107730000023C0F80831D0F808310193019B4B6A4F
:10774000D0F81805CA68D0544B6A01334B6202B0B6
:107750007047C0F80831D0F808310093009BD0F88A
:107760001835F4E700B585B001238DF8003002919B
:107770000192436801686846984705B05DF804FBCC
:1077800010B586B05A4BD3F8043313F4007F2CD0D5
:10779000574BD3F8243143B3554B0022C3F824216F
:1077A000D3F824210092009A4FF40172C3F8082301
:1077B000504B93F8293013B94D4B01225A600223E4
:1077C0008DF808304A4AD2F88034C2F880340593E4
:1077D000484B9A690492DA68039200229A61DA614E
:1077E0005A68196802A890470AE0414BD3F804335D
:1077F00013F0040F04D03E4BD3F80831002B32D1E4
:107800003B4BD3F81C31ABB13A4B5A691B6A9A42D5
:1078100004D9384B93F82830002B4FD0344B00223A
:10782000C3F81C21D3F81C310193019B314B5B69D8
:10783000002B48D12E4BD3F8443193B12C4B00226E
:10784000C3F84421D3F844310293029B294B93F8A7
:10785000293013B1264B01221A60264B9B69002B5D
:107860003ED106B010BD234C21462148FFF75DFFF5
:10787000636AA2699A42C3D1E3699BB91D4B93F82D
:10788000293013B91A4B01225A60194B4FF4017277
:10789000C3F80823174800238361416AC268FFF7D1
:1078A00061FFADE72046E268616AA3612369E36096
:1078B0000023E3616362FFF755FFA1E70D490C4820
:1078C000FFF70CFFB6E70B4B59698DF808200491C0
:1078D000996803915A615A68196802A89047A9E704
